:04000000C6EF3FF018
:04001400EAEF3FF0E0
:107F8C00010E606F060ED56ECB0ED66EF30ED76E4D
:107F9C00C168956A836A936AC00EF26E040EF16E24
:107FAC00F28AD58E010E836E83BEE2EF3FF083B072
:107FBC00E6EF3FF0DAEF3FF0000E606FE0EF3FF0DE
:107FCC00010E606FE0EF3FF0D59EF29AF29460A143
:107FDC00FAEF3FF0FDEF3FF0CB0ED66EF30ED76EFF
:107FEC00F28A860ED56E11008342F2EF3FF0834683
:047FFC00F2EF3FF071
:020000040030CA
:04000000000C1F1EB3
:020005008185F3
:060008000FC00FE00F40E5
:00000001FF
